{
  "_format": "hh-sol-artifact-1",
  "contractName": "Exchange",
  "sourceName": "contracts/Exchange.sol",
  "abi": [
    {
      "inputs": [
        {
          "internalType": "address[]",
          "name": "_tokenAddress",
          "type": "address[]"
        }
      ],
      "stateMutability": "nonpayable",
      "type": "constructor"
    },
    {
      "anonymous": false,
      "inputs": [
        {
          "indexed": false,
          "internalType": "address",
          "name": "account",
          "type": "address"
        },
        {
          "indexed": false,
          "internalType": "address",
          "name": "_tokenAddr",
          "type": "address"
        },
        {
          "indexed": false,
          "internalType": "uint256",
          "name": "_amount",
          "type": "uint256"
        }
      ],
      "name": "Buy",
      "type": "event"
    },
    {
      "anonymous": false,
      "inputs": [
        {
          "indexed": false,
          "internalType": "address",
          "name": "account",
          "type": "address"
        },
        {
          "indexed": false,
          "internalType": "address",
          "name": "_tokenAddr",
          "type": "address"
        },
        {
          "indexed": false,
          "internalType": "uint256",
          "name": "_amount",
          "type": "uint256"
        }
      ],
      "name": "Sell",
      "type": "event"
    },
    {
      "stateMutability": "payable",
      "type": "fallback"
    },
    {
      "inputs": [
        {
          "internalType": "address",
          "name": "_tokenAddr",
          "type": "address"
        },
        {
          "internalType": "uint256",
          "name": "_amount",
          "type": "uint256"
        }
      ],
      "name": "buyToken",
      "outputs": [],
      "stateMutability": "payable",
      "type": "function"
    },
    {
      "inputs": [
        {
          "internalType": "address",
          "name": "_tokenAddr",
          "type": "address"
        },
        {
          "internalType": "uint256",
          "name": "_amount",
          "type": "uint256"
        },
        {
          "internalType": "uint256",
          "name": "_payment",
          "type": "uint256"
        }
      ],
      "name": "sellToken",
      "outputs": [],
      "stateMutability": "payable",
      "type": "function"
    },
    {
      "inputs": [
        {
          "internalType": "address",
          "name": "",
          "type": "address"
        }
      ],
      "name": "supportedTokenAddress",
      "outputs": [
        {
          "internalType": "bool",
          "name": "",
          "type": "bool"
        }
      ],
      "stateMutability": "view",
      "type": "function"
    },
    {
      "stateMutability": "payable",
      "type": "receive"
    }
  ],
  "bytecode": "0x60806040523480156200001157600080fd5b5060405162000f1938038062000f198339818101604052810190620000379190620001b3565b60005b8151811015620000f257600160008084848151811062000083577f4e487b7100000000000000000000000000000000000000000000000000000000600052603260045260246000fd5b602002602001015173ffffffffffffffffffffffffffffffffffffffff1673ffffffffffffffffffffffffffffffffffffffff16815260200190815260200160002060006101000a81548160ff0219169083151502179055508080620000e990620002c4565b9150506200003a565b50506200039b565b6000620001116200010b8462000221565b620001f8565b905080838252602082019050828560208602820111156200013157600080fd5b60005b858110156200016557816200014a88826200016f565b84526020840193506020830192505060018101905062000134565b5050509392505050565b600081519050620001808162000381565b92915050565b600082601f8301126200019857600080fd5b8151620001aa848260208601620000fa565b91505092915050565b600060208284031215620001c657600080fd5b600082015167ffffffffffffffff811115620001e157600080fd5b620001ef8482850162000186565b91505092915050565b60006200020462000217565b90506200021282826200028e565b919050565b6000604051905090565b600067ffffffffffffffff8211156200023f576200023e62000341565b5b602082029050602081019050919050565b60006200025d8262000264565b9050919050565b600073ffffffffffffffffffffffffffffffffffffffff82169050919050565b6000819050919050565b620002998262000370565b810181811067ffffffffffffffff82111715620002bb57620002ba62000341565b5b80604052505050565b6000620002d18262000284565b91507fffffffffffffffffffffffffffffffffffffffffffffffffffffffffffffffff82141562000307576200030662000312565b5b600182019050919050565b7f4e487b7100000000000000000000000000000000000000000000000000000000600052601160045260246000fd5b7f4e487b7100000000000000000000000000000000000000000000000000000000600052604160045260246000fd5b6000601f19601f8301169050919050565b6200038c8162000250565b81146200039857600080fd5b50565b610b6e80620003ab6000396000f3fe6080604052600436106100385760003560e01c80630d3a7591146100415780633e11741f1461007e57806368f8fc101461009a5761003f565b3661003f57005b005b34801561004d57600080fd5b506100686004803603810190610063919061066f565b6100b6565b6040516100759190610904565b60405180910390f35b610098600480360381019061009391906106d4565b6100d6565b005b6100b460048036038101906100af9190610698565b6103f2565b005b60006020528060005260406000206000915054906101000a900460ff1681565b6000808473ffffffffffffffffffffffffffffffffffffffff1673ffffffffffffffffffffffffffffffffffffffff16815260200190815260200160002060009054906101000a900460ff16610161576040517f08c379a00000000000000000000000000000000000000000000000000000000081526004016101589061091f565b60405180910390fd5b6000839050818173ffffffffffffffffffffffffffffffffffffffff166370a08231336040518263ffffffff1660e01b81526004016101a09190610889565b60206040518083038186803b1580156101b857600080fd5b505afa1580156101cc573d6000803e3d6000fd5b505050506040513d601f19601f820116820180604052508101906101f0919061074c565b1015610231576040517f08c379a00000000000000000000000000000000000000000000000000000000081526004016102289061095f565b60405180910390fd5b82471015610274576040517f08c379a000000000000000000000000000000000000000000000000000000000815260040161026b9061093f565b60405180910390fd5b8073ffffffffffffffffffffffffffffffffffffffff166323b872dd3330856040518463ffffffff1660e01b81526004016102b1939291906108a4565b602060405180830381600087803b1580156102cb57600080fd5b505af11580156102df573d6000803e3d6000fd5b505050506040513d601f19601f820116820180604052508101906103039190610723565b5060003373ffffffffffffffffffffffffffffffffffffffff168460405161032a90610874565b60006040518083038185875af1925050503d8060008114610367576040519150601f19603f3d011682016040523d82523d6000602084013e61036c565b606091505b50509050806103b0576040517f08c379a00000000000000000000000000000000000000000000000000000000081526004016103a79061099f565b60405180910390fd5b7fae98fdb7f4bc601d31354dd8c8ba584bf892418c4df67aba01011867bd88ea273386866040516103e3939291906108a4565b60405180910390a15050505050565b6000808373ffffffffffffffffffffffffffffffffffffffff1673ffffffffffffffffffffffffffffffffffffffff16815260200190815260200160002060009054906101000a900460ff1661047d576040517f08c379a00000000000000000000000000000000000000000000000000000000081526004016104749061091f565b60405180910390fd5b6000829050818173ffffffffffffffffffffffffffffffffffffffff166370a08231306040518263ffffffff1660e01b81526004016104bc9190610889565b60206040518083038186803b1580156104d457600080fd5b505afa1580156104e8573d6000803e3d6000fd5b505050506040513d601f19601f8201168201806040525081019061050c919061074c565b101561054d576040517f08c379a00000000000000000000000000000000000000000000000000000000081526004016105449061097f565b60405180910390fd5b8073ffffffffffffffffffffffffffffffffffffffff1663a9059cbb33846040518363ffffffff1660e01b81526004016105889291906108db565b602060405180830381600087803b1580156105a257600080fd5b505af11580156105b6573d6000803e3d6000fd5b505050506040513d601f19601f820116820180604052508101906105da9190610723565b507fd0c183be209f70036b50de16805d88249019e1288d7b77ef877710999c0d08e633848460405161060e939291906108a4565b60405180910390a1505050565b60008135905061062a81610af3565b92915050565b60008151905061063f81610b0a565b92915050565b60008135905061065481610b21565b92915050565b60008151905061066981610b21565b92915050565b60006020828403121561068157600080fd5b600061068f8482850161061b565b91505092915050565b600080604083850312156106ab57600080fd5b60006106b98582860161061b565b92505060206106ca85828601610645565b9150509250929050565b6000806000606084860312156106e957600080fd5b60006106f78682870161061b565b935050602061070886828701610645565b925050604061071986828701610645565b9150509250925092565b60006020828403121561073557600080fd5b600061074384828501610630565b91505092915050565b60006020828403121561075e57600080fd5b600061076c8482850161065a565b91505092915050565b61077e816109db565b82525050565b61078d816109ed565b82525050565b60006107a06011836109ca565b91506107ab82610a23565b602082019050919050565b60006107c3601e836109ca565b91506107ce82610a4c565b602082019050919050565b60006107e6601a836109ca565b91506107f182610a75565b602082019050919050565b60006108096000836109bf565b915061081482610a9e565b600082019050919050565b600061082c600e836109ca565b915061083782610aa1565b602082019050919050565b600061084f6013836109ca565b915061085a82610aca565b602082019050919050565b61086e81610a19565b82525050565b600061087f826107fc565b9150819050919050565b600060208201905061089e6000830184610775565b92915050565b60006060820190506108b96000830186610775565b6108c66020830185610775565b6108d36040830184610865565b949350505050565b60006040820190506108f06000830185610775565b6108fd6020830184610865565b9392505050565b60006020820190506109196000830184610784565b92915050565b6000602082019050818103600083015261093881610793565b9050919050565b60006020820190508181036000830152610958816107b6565b9050919050565b60006020820190508181036000830152610978816107d9565b9050919050565b600060208201905081810360008301526109988161081f565b9050919050565b600060208201905081810360008301526109b881610842565b9050919050565b600081905092915050565b600082825260208201905092915050565b60006109e6826109f9565b9050919050565b60008115159050919050565b600073ffffffffffffffffffffffffffffffffffffffff82169050919050565b6000819050919050565b7f6e6f7420737570706f727420746f6b656e000000000000000000000000000000600082015250565b7f44657820646f6573206e6f74206861766520656e6f7567682066756e64730000600082015250565b7f496e73756666696369656e7420746f6b656e2062616c616e6365000000000000600082015250565b50565b7f546f6b656e20736f6c64206f7574000000000000000000000000000000000000600082015250565b7f455448207472616e73666572206661696c656400000000000000000000000000600082015250565b610afc816109db565b8114610b0757600080fd5b50565b610b13816109ed565b8114610b1e57600080fd5b50565b610b2a81610a19565b8114610b3557600080fd5b5056fea26469706673582212207d641c3d751a6221a54ca5363b0e4e490d06b718240f24359a6bb97fb33a476664736f6c63430008040033",
  "linkReferences": {},
  "deployedLinkReferences": {}
}