{
  "_format": "hh-sol-artifact-1",
  "contractName": "Exchange",
  "sourceName": "contracts/Exchange.sol",
  "abi": [
    {
      "inputs": [
        {
          "internalType": "address[]",
          "name": "_tokenAddress",
          "type": "address[]"
        }
      ],
      "stateMutability": "nonpayable",
      "type": "constructor"
    },
    {
      "anonymous": false,
      "inputs": [
        {
          "indexed": false,
          "internalType": "address",
          "name": "account",
          "type": "address"
        },
        {
          "indexed": false,
          "internalType": "address",
          "name": "_tokenAddr",
          "type": "address"
        },
        {
          "indexed": false,
          "internalType": "uint256",
          "name": "_amount",
          "type": "uint256"
        }
      ],
      "name": "Buy",
      "type": "event"
    },
    {
      "anonymous": false,
      "inputs": [
        {
          "indexed": false,
          "internalType": "address",
          "name": "account",
          "type": "address"
        },
        {
          "indexed": false,
          "internalType": "address",
          "name": "_tokenAddr",
          "type": "address"
        },
        {
          "indexed": false,
          "internalType": "uint256",
          "name": "_amount",
          "type": "uint256"
        }
      ],
      "name": "Sell",
      "type": "event"
    },
    {
      "inputs": [
        {
          "internalType": "address",
          "name": "_tokenAddr",
          "type": "address"
        },
        {
          "internalType": "uint256",
          "name": "_amount",
          "type": "uint256"
        }
      ],
      "name": "buyToken",
      "outputs": [],
      "stateMutability": "payable",
      "type": "function"
    },
    {
      "inputs": [
        {
          "internalType": "address",
          "name": "",
          "type": "address"
        }
      ],
      "name": "supportedTokenAddress",
      "outputs": [
        {
          "internalType": "bool",
          "name": "",
          "type": "bool"
        }
      ],
      "stateMutability": "view",
      "type": "function"
    }
  ],
  "bytecode": "0x60806040523480156200001157600080fd5b50604051620008fe380380620008fe8339818101604052810190620000379190620001b3565b60005b8151811015620000f257600160008084848151811062000083577f4e487b7100000000000000000000000000000000000000000000000000000000600052603260045260246000fd5b602002602001015173ffffffffffffffffffffffffffffffffffffffff1673ffffffffffffffffffffffffffffffffffffffff16815260200190815260200160002060006101000a81548160ff0219169083151502179055508080620000e990620002c4565b9150506200003a565b50506200039b565b6000620001116200010b8462000221565b620001f8565b905080838252602082019050828560208602820111156200013157600080fd5b60005b858110156200016557816200014a88826200016f565b84526020840193506020830192505060018101905062000134565b5050509392505050565b600081519050620001808162000381565b92915050565b600082601f8301126200019857600080fd5b8151620001aa848260208601620000fa565b91505092915050565b600060208284031215620001c657600080fd5b600082015167ffffffffffffffff811115620001e157600080fd5b620001ef8482850162000186565b91505092915050565b60006200020462000217565b90506200021282826200028e565b919050565b6000604051905090565b600067ffffffffffffffff8211156200023f576200023e62000341565b5b602082029050602081019050919050565b60006200025d8262000264565b9050919050565b600073ffffffffffffffffffffffffffffffffffffffff82169050919050565b6000819050919050565b620002998262000370565b810181811067ffffffffffffffff82111715620002bb57620002ba62000341565b5b80604052505050565b6000620002d18262000284565b91507fffffffffffffffffffffffffffffffffffffffffffffffffffffffffffffffff82141562000307576200030662000312565b5b600182019050919050565b7f4e487b7100000000000000000000000000000000000000000000000000000000600052601160045260246000fd5b7f4e487b7100000000000000000000000000000000000000000000000000000000600052604160045260246000fd5b6000601f19601f8301169050919050565b6200038c8162000250565b81146200039857600080fd5b50565b61055380620003ab6000396000f3fe6080604052600436106100295760003560e01c80630d3a75911461002e57806368f8fc101461006b575b600080fd5b34801561003a57600080fd5b5061005560048036038101906100509190610299565b610087565b604051610062919061041b565b60405180910390f35b610085600480360381019061008091906102c2565b6100a7565b005b60006020528060005260406000206000915054906101000a900460ff1681565b6000829050818173ffffffffffffffffffffffffffffffffffffffff166370a08231306040518263ffffffff1660e01b81526004016100e691906103a0565b60206040518083038186803b1580156100fe57600080fd5b505afa158015610112573d6000803e3d6000fd5b505050506040513d601f19601f820116820180604052508101906101369190610327565b1015610177576040517f08c379a000000000000000000000000000000000000000000000000000000000815260040161016e90610436565b60405180910390fd5b8073ffffffffffffffffffffffffffffffffffffffff1663a9059cbb33846040518363ffffffff1660e01b81526004016101b29291906103f2565b602060405180830381600087803b1580156101cc57600080fd5b505af11580156101e0573d6000803e3d6000fd5b505050506040513d601f19601f8201168201806040525081019061020491906102fe565b507fd0c183be209f70036b50de16805d88249019e1288d7b77ef877710999c0d08e6338484604051610238939291906103bb565b60405180910390a1505050565b600081359050610254816104d8565b92915050565b600081519050610269816104ef565b92915050565b60008135905061027e81610506565b92915050565b60008151905061029381610506565b92915050565b6000602082840312156102ab57600080fd5b60006102b984828501610245565b91505092915050565b600080604083850312156102d557600080fd5b60006102e385828601610245565b92505060206102f48582860161026f565b9150509250929050565b60006020828403121561031057600080fd5b600061031e8482850161025a565b91505092915050565b60006020828403121561033957600080fd5b600061034784828501610284565b91505092915050565b61035981610467565b82525050565b61036881610479565b82525050565b600061037b600e83610456565b9150610386826104af565b602082019050919050565b61039a816104a5565b82525050565b60006020820190506103b56000830184610350565b92915050565b60006060820190506103d06000830186610350565b6103dd6020830185610350565b6103ea6040830184610391565b949350505050565b60006040820190506104076000830185610350565b6104146020830184610391565b9392505050565b6000602082019050610430600083018461035f565b92915050565b6000602082019050818103600083015261044f8161036e565b9050919050565b600082825260208201905092915050565b600061047282610485565b9050919050565b60008115159050919050565b600073ffffffffffffffffffffffffffffffffffffffff82169050919050565b6000819050919050565b7f546f6b656e20736f6c64206f7574000000000000000000000000000000000000600082015250565b6104e181610467565b81146104ec57600080fd5b50565b6104f881610479565b811461050357600080fd5b50565b61050f816104a5565b811461051a57600080fd5b5056fea26469706673582212203bead85e40ce389dfa31ea4e8cfe751ca1742a46c86d8d8acf69a70af53c3cb164736f6c63430008040033",
  "linkReferences": {},
  "deployedLinkReferences": {}
}